:020000040800F2
:1000000000C00020310A00086109000869090008E1
:100010007109000879090008810900080000000042
:100020000000000000000000000000008909000836
:100030009509000800000000A1090008AD090008AA
:10004000790A0008790A0008790A0008790A000884
:10005000790A0008790A0008790A0008790A000874
:10006000790A0008790A0008790A0008790A000864
:10007000790A0008790A0008790A0008790A000854
:10008000790A0008790A0008790A0008790A000844
:10009000790A0008790A0008790A0008790A000834
:1000A000790A0008790A0008790A0008790A000824
:1000B000790A0008790A0008790A0008790A000814
:1000C000790A0008790A0008790A0008790A000804
:1000D000790A0008790A0008790A0008790A0008F4
:1000E000790A0008790A0008790A0008790A0008E4
:1000F000790A0008790A0008790A0008790A0008D4
:10010000790A0008790A0008790A0008790A0008C3
:10011000790A0008790A0008790A0008790A0008B3
:10012000790A0008790A0008790A0008790A0008A3
:1001300000000000000000000000000000000000BF
:1001400000000000000000000000000000000000AF
:10015000000000000000000000000000000000009F
:10016000000000000000000000000000000000008F
:10017000000000000000000000000000000000007F
:10018000000000000000000000000000000000006F
:10019000000000000000000000000000000000005F
:1001A000000000000000000000000000000000004F
:1001B000000000000000000000000000000000003F
:1001C000000000000000000000000000000000002F
:1001D000000000000000000000000000000000001F
:0401E0005FF8E0F1F3
:1001E40010B5054C237833B9044B13B10448AFF36D
:1001F40000800123237010BD8C000020000000004B
:10020400742F000808B5034B1BB103490348AFF32F
:10021400008008BD0000000090000020742F00083A
:10022400034613F8012B002AFBD1181A0138704732
:1002340080B5CAB002AF00F01FFC00F0BBF900F0BB
:1002440087FA00F0F3F900F059FA0023C7F81C31DB
:10025400B04801F07BFB07F1A7014FF0FF33012207
:10026400AD4801F0CAFF97F8A7300D2B40F0358157
:1002740007F1A802D7F81C31134400221A7007F1C1
:10028400A803184600F05AF90023C7F818310023D0
:10029400C7F8143174E0A14AD7F8143152F8232076
:1002A40007F1A8031146184602F0C4F90346002BCF
:1002B40061D0D7F81431072B42D801A252F823F0A9
:1002C400E5020008F1020008FD0200080903000825
:1002D40015030008210300082D0300083903000852
:1002E400002201218E4800F0B8FE2AE001220121FB
:1002F4008B4800F0B2FE24E000220221884800F07E
:10030400ACFE1EE001220221854800F0A6FE18E0A2
:1003140000220421824800F0A0FE12E00122042100
:100324007F4800F09AFE0CE0002208217C4800F08F
:1003340094FE06E001220821794800F08EFE00E0D8
:1003440000BF07F13800D7F81431764A322102F0A1
:1003540035F907F138031846FFF762FF03469AB2EE
:1003640007F138014FF0FF336B4801F0BBFE012366
:10037400C7F8183108E0D7F814310133C7F814313D
:10038400D7F81431072B86DD0023C7F8103169E054
:10039400654AD7F8103152F8232007F1A803114613
:1003A400184602F047F90346002B56D0D7F810310F
:1003B400032B2FD801A252F823F000BFD103000869
:1003C400E3030008F5030008070400084FF4805114
:1003D400564800F02BFE034687F80F311EE04FF419
:1003E4000051524800F022FE034687F80F3115E011
:1003F4004FF480414D4800F019FE034687F80F3151
:100404000CE04FF40041494800F010FE034687F821
:100414000F3103E0002387F80F3100BFD7F8103104
:100424005A1C97F80F3107F1380000931346404ADD
:10043400322102F0C3F807F138031846FFF7F0FE43
:1004440003469AB207F138014FF0FF33324801F006
:1004540049FE0123C7F8183108E0D7F810310133F9
:10046400C7F81031D7F81031032B91DDD7F81831C4
:10047400002B27D107F1A80307F138002D4A6E217C
:1004840002F09CF807F138031846FFF7C9FE03464B
:100494009AB207F138014FF0FF331F4801F022FEF2
:1004A4003B1D254A3221184602F088F83B1D1846A8
:1004B400FFF7B6FE03469AB2391D4FF0FF331648D4
:1004C40001F010FE0023C7F81C3107F1A8036422D1
:1004D4000021184602F0A6F8BDE6D7F81C315A1CD4
:1004E400C7F81C2197F8A72003F590733B4403F841
:1004F400782CD7F81C31622B7FF6ADAE0023C7F8F9
:100504001C3107F1A80364220021184602F08AF87E
:10051400A1E600BFA8000020F00000200000002099
:1005240000100140EC2F000820000020000C0140C6
:10053400F82F0008043000081030000880B584B09B
:1005440000AF786002E07B6801337B607B681B78D6
:100554000133174A13441B7803F00803002BF2D12C
:100564007B681B78002B1ED07868FFF759FE034682
:10057400013B7A681344FB6002E0FB68013BFB60CB
:10058400FA687B689A4209D9FB681B780133084AE8
:1005940013441B7803F00803002BEED1FB680133EE
:1005A40000221A7000E000BF1037BD4680BD00BFB6
:1005B4004E30000880B590B000AF07F11803282230
:1005C4000021184602F02EF83B1D00221A605A60E2
:1005D4009A60DA601A610223BB610123BB621023B3
:1005E400FB6200237B6307F11803184600F04EFDFD
:1005F4000346002B01D000F00FF90F237B6000238A
:10060400BB600023FB6000233B6100237B613B1D37
:100614000021184600F0BCFF0346002B01D000F077
:10062400FBF800BF4037BD4680BD000080B58CB0EC
:1006340000AF07F1200300221A605A609A60DA6062
:1006440007F10C0300221A605A609A60DA601A619A
:100654003B1D00221A605A60264B274A1A60254B1C
:1006640047225A60234B00229A60224B4FF0FF32FC
:10067400DA60204B00221A611E4B00225A611D4B86
:1006840000229A611B4801F011F90346002B01D0A6
:1006940000F0C2F84FF480533B6207F1200319467F
:1006A400144801F0ABF90346002B01D000F0B4F874
:1006B4000623FB6000233B6107F10C0319460D4838
:1006C40001F063FA0346002B01D000F0A5F80023E3
:1006D4007B600023BB603B1D1946064801F046FCC5
:1006E4000346002B01D000F097F800BF3037BD4619
:1006F40080BD00BFA8000020002C014080B500AFE1
:10070400114B124A1A60104B4FF4E1325A600E4BEF
:1007140000229A600C4B0022DA600B4B00221A6113
:10072400094B0C225A61084B00229A61064B0022A5
:10073400DA61054801F086FC0346002B01D000F085
:100744006BF800BF80BD00BFF000002000380140FE
:1007540080B588B000AF07F1100300221A605A6018
:100764009A60DA60294B9B69284A43F0200393611D
:10077400264B9B6903F02003FB60FB68234B9B69BA
:10078400224A43F010039361204B9B6903F010034A
:10079400BB60BB681D4B9B691C4A43F00803936113
:1007A4001A4B9B6903F008037B607B68174B9B69BA
:1007B400164A43F004039361144B9B6903F004034A
:1007C4003B603B6801220F21114800F046FC0F23D7
:1007D4003B6101237B610023BB610223FB6107F1C1
:1007E400100319460A4800F08DFA4FF470433B6138
:1007F40000237B610023BB6107F110031946054800
:1008040000F080FA00BF2037BD4680BD00100240D2
:1008140000100140000C014080B400AF72B600BF6C
:1008240000BFFDE780B485B000AF154B9B69144A47
:1008340043F001039361124B9B6903F00103BB6016
:10084400BB680F4BDB690E4A43F08053D3610C4BFA
:10085400DB6903F080537B607B680A4B5B68FB6059
:10086400FB6823F0E063FB60FB6843F08063FB609C
:10087400044AFB68536000BF1437BD4680BC704710
:10088400001002400000014080B485B000AF7860E1
:100894007B681B68094A93420BD1094B9B69084A40
:1008A40043F400639361064B9B6903F40063FB60AC
:1008B400FB6800BF1437BD4680BC7047002C014064
:1008C4000010024080B588B000AF786007F11003D3
:1008D40000221A605A609A60DA607B681B681C4ABE
:1008E400934231D11B4B9B691A4A43F48043936171
:1008F400184B9B6903F48043FB60FB68154B9B69B1
:10090400144A43F004039361124B9B6903F00403FC
:10091400BB60BB684FF400733B6102237B6103231C
:10092400FB6107F1100319460B4800F0EBF94FF493
:1009340080633B6100237B610023BB6107F11003EB
:100944001946054800F0DEF900BF2037BD4680BDDA
:1009540000380140001002400008014080B400AF9C
:1009640000BFFDE780B400AF00BFFDE780B400AF77
:1009740000BFFDE780B400AF00BFFDE780B400AF67
:1009840000BFFDE780B400AF00BFBD4680BC704728
:1009940080B400AF00BFBD4680BC704780B400AFD8
:1009A40000BFBD4680BC704780B500AF00F0AAF818
:1009B40000BF80BD80B586B000AF7860144A154B87
:1009C400D31A7B617B693B61134B1B68002B02D1FB
:1009D400114B124A1A60104B1A687B6813443A6927
:1009E4009A4207D201F03CFE03460C221A604FF0F3
:1009F400FF3309E0084B1B68FB60074B1A687B68F0
:100A04001344054A1360FB6818461837BD4680BD79
:100A140000C00020000400003801002088020020EB
:100A240080B400AF00BFBD4680BC7047FFF7F8FF3D
:100A34000B480C490C4A002302E0D458C450043338
:100A4400C4188C42F9D3094A094C002301E013600D
:100A54000432A242FBD301F009FEFFF7E9FB704721
:100A6400000000208C000020943100088C0000203D
:100A740088020020FEE7000080B500AF084B1B6829
:100A8400074A43F010031360032000F007F90F2016
:100A940000F008F8FFF7C6FE0023184680BD00BF2B
:100AA4000020024080B582B000AF7860124B1A6813
:100AB400124B1B7819464FF47A73B3FBF1F3B2FB74
:100AC400F3F3184600F011F90346002B01D001237B
:100AD4000EE07B680F2B0AD8002279684FF0FF30B4
:100AE40000F0E7F8064A7B681360002300E0012366
:100AF40018460837BD4680BD30000020380000206D
:100B04003400002080B400AF054B1B781A46054B17
:100B14001B681344034A136000BFBD4680BC704782
:100B2400380000203C01002080B400AF024B1B6859
:100B34001846BD4680BC70473C01002080B485B097
:100B440000AF78607B6803F00703FB600C4BDB6845
:100B5400BB60BA684FF6FF031340BB60FB681A0220
:100B6400BB68134343F0BF6343F40033BB60044AE0
:100B7400BB68D36000BF1437BD4680BC704700BF5C
:100B840000ED00E080B400AF044BDB681B0A03F007
:100B940007031846BD4680BC704700BF00ED00E067
:100BA40080B483B000AF03463960FB7197F9073016
:100BB400002B0ADB3B68DAB20C4997F907301201C3
:100BC400D2B20B4483F800230AE03B68DAB2084946
:100BD400FB7903F00F03043B1201D2B20B441A76E3
:100BE40000BF0C37BD4680BC704700BF00E100E089
:100BF40000ED00E080B489B000AFF860B9607A60BD
:100C0400FB6803F00703FB61FB69C3F10703042BD3
:100C140028BF0423BB61FB690433062B02D9FB699B
:100C2400033B00E000237B614FF0FF32BB6902FA13
:100C340003F3DA43BB681A407B699A404FF0FF31F3
:100C44007B6901FA03F3D9437B680B4013431846CD
:100C54002437BD4680BC704780B582B000AF786051
:100C64007B68013BB3F1807F01D301230FE00A4A83
:100C74007B68013B53600F214FF0FF30FFF790FF7B
:100C8400054B00229A60044B07221A600023184681
:100C94000837BD4680BD00BF10E000E080B582B0DB
:100CA40000AF78607868FFF749FF00BF0837BD469A
:100CB40080BD80B586B000AF0346B9607A60FB732F
:100CC40000237B61FFF75EFF78617A68B968786911
:100CD400FFF790FF024697F90F3011461846FFF7C9
:100CE4005FFF00BF1837BD4680BD80B582B000AF3E
:100CF40078607868FFF7B0FF034618460837BD46AA
:100D040080BD000080B48BB000AF786039600023F0
:100D14007B6200233B6279E101227B6A02FA03F3DE
:100D2400FB613B681B68FA691340BB61BA69FB69E4
:100D34009A4240F068813B685B68964A93425ED071
:100D4400944A934275D8944A934258D0924A934213
:100D54006FD8924A934252D0904A934269D8904AAB
:100D640093424CD08E4A934263D88E4A934246D0E3
:100D74008C4A93425DD8122B2AD8122B59D801A23F
:100D840052F823F0030E0008DD0D0008EF0D0008F3
:100D9400310E0008370E0008370E0008370E000821
:100DA400370E0008370E0008370E0008370E00080B
:100DB400370E0008370E0008370E0008370E0008FB
:100DC400370E0008370E0008E50D0008F90D00087D
:100DD400754A934213D02CE03B68DB683B6229E000
:100DE4003B68DB6804333B6224E03B68DB68083320
:100DF4003B621FE03B68DB680C333B621AE03B68F4
:100E04009B68002B02D104233B6213E03B689B6880
:100E1400012B05D108233B627B68FA691A6109E05A
:100E240008233B627B68FA695A6103E000233B6252
:100E340000E000BFBB69FF2B01D87B6801E07B6841
:100E440004337B61BB69FF2B02D87B6A9B0002E001
:100E54007B6A083B9B003B617B691A680F213B69F5
:100E640001FA03F3DB431A40396A3B6901FA03F3DD
:100E74001A437B691A603B685B6803F08053002B5C
:100E840000F0C180494B9B69484A43F001039361D8
:100E9400464B9B6903F00103BB60BB68444A7B6A11
:100EA4009B08023352F82330FB607B6A03F0030390
:100EB4009B000F2202FA03F3DB43FA681340FB6042
:100EC4007B683C4A93421FD07B683B4A934219D0CB
:100ED4007B683A4A934213D07B68394A93420DD0D7
:100EE4007B68384A934207D07B68374A934201D1E2
:100EF40005230AE0062308E0042306E0032304E0B4
:100F0400022302E0012300E000237A6A02F00302D4
:100F140092009340FA681343FB6025497B6A9B085F
:100F24000233FA6841F823203B685B6803F48013BA
:100F3400002B06D0254B9A682449BB6913438B6068
:100F440006E0224B9A68BB69DB43204913408B605F
:100F54003B685B6803F40013002B06D01B4BDA6874
:100F64001A49BB691343CB6006E0184BDA68BB69C6
:100F7400DB4316491340CB603B685B6803F40033E2
:100F8400002B25D0114B5A681049BB6913434B60A1
:100F940025E000BF000032100000311000002210D4
:100FA4000000211000001210000011100010024077
:100FB4000000014000080140000C01400010014005
:100FC4000014014000180140001C014000040140CD
:100FD400154B5A68BB69DB43134913404B603B68AC
:100FE4005B6803F48033002B06D00F4B1A680E495C
:100FF400BB6913430B6006E00B4B1A68BB69DB4308
:10100400094913400B607B6A01337B623B681A68B1
:101014007B6A22FA03F3002B7FF47EAE00BF00BF8D
:101024002C37BD4680BC70470004014080B485B0B5
:1010340000AF78600B467B807B689A687B8813409E
:10104400002B02D00123FB7301E00023FB73FB7B25
:1010540018461437BD4680BC704780B483B000AFD7
:1010640078600B467B8013467B707B78002B03D023
:101074007A887B681A6103E07B881A047B681A61AA
:1010840000BF0C37BD4680BC7047000080B586B0F9
:1010940000AF78607B68002B01D1012372E27B688A
:1010A4001B6803F00103002B00F08780924B5B6800
:1010B40003F00C03042B0CD08F4B5B6803F00C0380
:1010C400082B12D18C4B5B6803F48033B3F5803F5B
:1010D4000BD1894B1B6803F40033002B6CD07B6865
:1010E4005B68002B68D101234CE27B685B68B3F535
:1010F400803F06D1804B1B687F4A43F480331360E2
:101104002EE07B685B68002B0CD17B4B1B687A4A12
:1011140023F480331360784B1B68774A23F48023CD
:1011240013601DE07B685B68B3F5A02F0CD1724B94
:101134001B68714A43F4802313606F4B1B686E4A2B
:1011440043F4803313600BE06B4B1B686A4A23F44F
:1011540080331360684B1B68674A23F48023136051
:101164007B685B68002B13D0FFF7DEFC386108E076
:10117400FFF7DAFC02463B69D31A642B01D9032337
:1011840000E25D4B1B6803F40033002BF0D014E045
:10119400FFF7CAFC386108E0FFF7C6FC02463B696A
:1011A400D31A642B01D90323ECE1534B1B6803F4DA
:1011B4000033002BF0D100E000BF7B681B6803F014
:1011C4000203002B63D04C4B5B6803F00C03002B31
:1011D4000BD0494B5B6803F00C03082B1CD1464B26
:1011E4005B6803F48033002B16D1434B1B6803F078
:1011F4000203002B05D07B681B69012B01D001235E
:10120400C0E13D4B1B6823F0F8027B685B69DB009F
:10121400394913430B603AE07B681B69002B20D0EB
:10122400364B01221A60FFF77FFC386108E0FFF7B4
:101234007BFC02463B69D31A022B01D90323A1E1AB
:101244002D4B1B6803F00203002BF0D02A4B1B68C4
:1012540023F0F8027B685B69DB00274913430B60CA
:1012640015E0264B00221A60FFF75EFC386108E0A7
:10127400FFF75AFC02463B69D31A022B01D9032318
:1012840080E11D4B1B6803F00203002BF0D17B6847
:101294001B6803F00803002B3AD07B689B69002B82
:1012A40019D0174B01221A60FFF73EFC386108E0A1
:1012B400FFF73AFC02463B69D31A022B01D90323F8
:1012C40060E10D4B5B6A03F00203002BF0D00120B8
:1012D40000F0CEFA1CE00A4B00221A60FFF724FC4F
:1012E40038610FE0FFF720FC02463B69D31A022B5A
:1012F40008D9032346E100BF001002400000424227
:1013040080044242924B5B6A03F00203002BE9D152
:101314007B681B6803F00403002B00F0A680002305
:10132400FB758B4BDB6903F08053002B0DD1884B8D
:10133400DB69874A43F08053D361854BDB6903F053
:101344008053BB60BB680123FB75824B1B6803F4AD
:101354008073002B18D17F4B1B687E4A43F4807343
:101364001360FFF7E1FB386108E0FFF7DDFB02469D
:101374003B69D31A642B01D9032303E1754B1B6822
:1013840003F48073002BF0D07B68DB68012B06D15B
:101394006F4B1B6A6E4A43F0010313622DE07B68B6
:1013A400DB68002B0CD16A4B1B6A694A23F00103EA
:1013B4001362674B1B6A664A23F0040313621CE042
:1013C4007B68DB68052B0CD1614B1B6A604A43F0D8
:1013D400040313625E4B1B6A5D4A43F0010313620C
:1013E4000BE05B4B1B6A5A4A23F001031362584B10
:1013F4001B6A574A23F0040313627B68DB68002BE3
:1014040015D0FFF791FB38610AE0FFF78DFB024628
:101414003B69D31A41F28832934201D90323B1E0E4
:101424004B4B1B6A03F00203002BEED014E0FFF7D2
:101434007BFB38610AE0FFF777FB02463B69D31A6E
:1014440041F28832934201D903239BE0404B1B6A4B
:1014540003F00203002BEED1FB7D012B05D13C4BA5
:10146400DB693B4A23F08053D3617B68DB69002B43
:1014740000F08780364B5B6803F00C03082B61D0C7
:101484007B68DB69022B46D1334B00221A60FFF7DD
:101494004BFB386108E0FFF747FB02463B69D31A70
:1014A400022B01D903236DE0294B1B6803F0007361
:1014B400002BF0D17B681B6AB3F5803F08D1244B25
:1014C4005B6823F400327B689B68214913434B60BB
:1014D4001F4B5B6823F474127B68196A7B685B6A30
:1014E4000B431B4913434B601B4B01221A60FFF74C
:1014F4001BFB386108E0FFF717FB02463B69D31A70
:10150400022B01D903233DE0114B1B6803F0007348
:10151400002BF0D035E0104B00221A60FFF704FBDB
:10152400386108E0FFF700FB02463B69D31A022B3F
:1015340001D9032326E0064B1B6803F00073002B3C
:10154400F0D11EE07B68DB69012B07D1012319E090
:101554000010024000700040600042420B4B5B6888
:10156400FB60FB6803F480327B681B6A9A4206D1F5
:10157400FB6803F470127B685B6A9A4201D0012312
:1015840000E0002318461837BD4680BD0010024015
:1015940080B584B000AF786039607B68002B01D1DE
:1015A4000123D0E06A4B1B6803F007033A689A42B0
:1015B40010D9674B1B6823F0070265493B68134346
:1015C4000B60634B1B6803F007033A689A4201D02F
:1015D4000123B8E07B681B6803F00203002B20D0D2
:1015E4007B681B6803F00403002B05D0594B5B6830
:1015F400584A43F4E06353607B681B6803F00803B4
:10160400002B05D0534B5B68524A43F4605353603C
:10161400504B5B6823F0F0027B689B684D49134391
:101624004B607B681B6803F00103002B40D07B6890
:101634005B68012B07D1474B1B6803F40033002B75
:1016440015D101237FE07B685B68022B07D1414BF6
:101654001B6803F00073002B09D1012373E03D4B99
:101664001B6803F00203002B01D101236BE0394B0B
:101674005B6823F003027B685B68364913434B6065
:10168400FFF752FAF8600AE0FFF74EFA0246FB68E9
:10169400D31A41F28832934201D9032353E02D4BEC
:1016A4005B6803F00C027B685B689B009A42EBD199
:1016B400274B1B6803F007033A689A4210D2244B65
:1016C4001B6823F0070222493B6813430B60204B3D
:1016D4001B6803F007033A689A4201D0012332E001
:1016E4007B681B6803F00403002B08D0194B5B686C
:1016F40023F4E0627B68DB68164913434B607B6824
:101704001B6803F00803002B09D0124B5B6823F419
:1017140060527B681B69DB000E4913434B6000F089
:1017240021F802460B4B5B681B0903F00F030A49BF
:10173400CB5C22FA03F3094A1360094B1B68184671
:10174400FFF7B0F9002318461037BD4680BD00BF2F
:101754000020024000100240243000083000002025
:101764003400002080B487B000AF0023FB60002366
:10177400BB6000237B6100237B6000233B611E4B25
:101784005B68FB60FB6803F00C03042B02D0082B9E
:1017940003D027E0194B3B6127E0FB689B0C03F067
:1017A4000F03174AD35C7B60FB6803F48033002B80
:1017B40010D0114B5B685B0C03F00103114AD35C3E
:1017C400BB607B680D4A03FB02F2BB68B2FBF3F318
:1017D4007B6104E07B680C4A02FB03F37B617B6959
:1017E4003B6102E0054B3B6100BF3B6918461C3777
:1017F400BD4680BC704700BF0010024000127A0052
:101804003C3000084C30000800093D0080B400AFB3
:10181400024B1B681846BD4680BC70473000002050
:1018240080B500AFFFF7F2FF0246054B5B681B0A69
:1018340003F007030349CB5C22FA03F3184680BD87
:10184400001002403430000880B500AFFFF7DEFF1F
:101854000246054B5B68DB0A03F007030349CB5CD4
:1018640022FA03F3184680BD001002403430000809
:1018740080B485B000AF78600A4B1B680A4AA2FBAB
:1018840003235B0A7A6802FB03F3FB6000BFFB6877
:101894005A1EFA60002BF9D100BF00BF1437BD46B1
:1018A40080BC704730000020D34D621080B582B0F8
:1018B40000AF78607B68002B01D1012341E07B6895
:1018C40093F83D30DBB2002B06D17B68002283F80D
:1018D4003C207868FEF7D8FF7B68022283F83D201D
:1018E4007B681A687B6804331946104600F090F947
:1018F4007B68012283F846207B68012283F83E201E
:101904007B68012283F83F207B68012283F8402012
:101914007B68012283F841207B68012283F84220FE
:101924007B68012283F843207B68012283F84420EA
:101934007B68012283F845207B68012283F83D20DF
:10194400002318460837BD4680BD000080B485B02A
:1019540000AF78607B6893F83D30DBB2012B01D097
:1019640001233CE07B68022283F83D207B681B68EE
:101974001D4A934218D07B681B681C4A934213D0BB
:101984007B681B68B3F1804F0ED07B681B68184AD4
:10199400934209D07B681B68164A934204D07B6843
:1019A4001B68154A934211D17B681B689B6803F03E
:1019B4000703FB60FB68062B10D07B681B681A6862
:1019C4007B681B6842F001021A6007E07B681B68B1
:1019D4001A687B681B6842F001021A6000231846EB
:1019E4001437BD4680BC7047002C014000340140D0
:1019F4000004004000080040000C004080B584B0A2
:101A040000AF786039600023FB737B6893F83C3047
:101A1400012B01D10223B4E07B68012283F83C202E
:101A24007B68022283F83D207B681B689B68BB604F
:101A3400BB6823F07703BB60BB6823F47F43BB60C0
:101A44007B681B68BA689A603B681B68B3F5005FE3
:101A54003ED0B3F5005F00F28780B3F5805F00F0FD
:101A64008680B3F5805F7FD8702B1AD0702B7BD81B
:101A7400602B50D0602B77D8502B3CD0502B73D890
:101A8400402B58D0402B6FD8302B64D0302B6BD8E0
:101A9400202B60D0202B67D8002B5CD0102B5AD081
:101AA40062E07B6818683B6899683B685A683B68E1
:101AB400DB6800F03BFA7B681B689B68BB60BB6813
:101AC40043F07703BB607B681B68BA689A604FE099
:101AD4007B6818683B6899683B685A683B68DB68B0
:101AE40000F024FA7B681B689A687B681B6842F4E0
:101AF40080429A603CE07B6818683B6859683B68A0
:101B0400DB681A4600F09BF97B681B685021184675
:101B140000F0F2F92CE07B6818683B6859683B6870
:101B2400DB681A4600F0B9F97B681B686021184627
:101B340000F0E2F91CE07B6818683B6859683B6870
:101B4400DB681A4600F07BF97B681B684021184665
:101B540000F0D2F90CE07B681A683B681B681946F0
:101B6400104600F0C9F903E00123FB7300E000BF55
:101B74007B68012283F83D207B68002283F83C20A7
:101B8400FB7B18461037BD4680BD80B582B000AFE0
:101B9400786039607B6893F83C30012B01D10223D3
:101BA40031E07B68012283F83C207B68022283F8C1
:101BB4003D203968786800F0B1F80346002B09D05D
:101BC4007B68012283F83D207B68002283F83C2057
:101BD400012318E07B681B68DA687B681B6822F0C5
:101BE4004002DA607B681B68DA687B681B6822F451
:101BF4008042DA607B68012283F83D207B68002202
:101C040083F83C20002318460837BD4680BD0000F9
:101C140080B485B000AF786039607B681B68FB6076
:101C24007B68394A934213D07B68384A93420FD079
:101C34007B68B3F1804F0BD07B68354A934207D061
:101C44007B68344A934203D07B68334A934208D179
:101C5400FB6823F07003FB603B685B68FA6813431E
:101C6400FB607B68284A934213D07B68274A9342DF
:101C74000FD07B68B3F1804F0BD07B68244A93422A
:101C840007D07B68234A934203D07B68224A93425D
:101C940008D1FB6823F44073FB603B68DB68FA6897
:101CA4001343FB60FB6823F080023B685B691343CA
:101CB400FB607B68FA681A603B689A687B68DA6242
:101CC4003B681A687B689A627B680F4A934203D028
:101CD4007B680E4A934203D13B681A697B681A6396
:101CE4007B6801225A617B681B6903F00103002BA6
:101CF40005D07B681B6923F001027B681A6100BF71
:101D04001437BD4680BC7047002C014000340140AC
:101D14000004004000080040000C004080B586B07C
:101D240000AF786039600023FB757B681B689B6893
:101D34003B613B6923F070033B613B685B683A6934
:101D440013433B613B6923F007033B613B681B681A
:101D54003A6913433B617B681B683A699A603B6844
:101D64005B68702B1AD0702B60D8602B54D0602B1A
:101D74005CD8502B46D0502B58D8402B19D0402B30
:101D840054D8302B55D0302B50D8202B51D0202B69
:101D94004CD8002B4DD0102B4BD047E07B681868F3
:101DA4003B68D9683B689A683B681B6900F0BEF8D9
:101DB40040E03B681B68052B01D101233BE07B68B5
:101DC4001B681B6AFB607B681B681A6A7B681B685C
:101DD40022F001021A627B681B689B69BB60BB68C6
:101DE40023F0F003BB603B681B691B01BA68134313
:101DF400BB607B681B68BA689A617B681B68FA6879
:101E04001A6217E07B6818683B6899683B681B692D
:101E14001A4600F014F80DE07B6818683B6899686E
:101E24003B681B691A4600F038F803E00123FB7590
:101E340000E000BFFB7D18461837BD4680BD80B466
:101E440087B000AFF860B9607A60FB681B6A7B6199
:101E5400FB681B6A23F00102FB681A62FB689B693A
:101E64003B613B6923F0F0033B617B681B013A69EA
:101E740013433B617B6923F00A037B617A69BB6886
:101E840013437B61FB683A699A61FB687A691A6259
:101E940000BF1C37BD4680BC704780B487B000AF1C
:101EA400F860B9607A60FB681B6A7B61FB681B6A37
:101EB40023F01002FB681A62FB689B693B613B6973
:101EC40023F470433B617B681B033A6913433B6112
:101ED4007B6923F0A0037B61BB681B017A69134310
:101EE4007B61FB683A699A61FB687A691A6200BF90
:101EF4001C37BD4680BC704780B485B000AF7860A5
:101F040039607B689B68FB60FB6823F07003FB60AF
:101F14003A68FB68134343F00703FB607B68FA6885
:101F24009A6000BF1437BD4680BC704780B487B048
:101F340000AFF860B9607A603B60FB689B687B61C6
:101F44007B6923F47F437B613B681A027B681A43F5
:101F5400BB6813437A6913437B61FB687A699A60AF
:101F640000BF1C37BD4680BC7047000080B485B0FC
:101F740000AF786039607B6893F83C30012B01D165
:101F8400022350E07B68012283F83C207B68022214
:101F940083F83D207B681B685B68FB607B681B687B
:101FA4009B68BB60FB6823F07003FB603B681B68A5
:101FB400FA681343FB607B681B68FA685A607B68A5
:101FC4001B681B4A934218D07B681B68194A9342CA
:101FD40013D07B681B68B3F1804F0ED07B681B68FD
:101FE400154A934209D07B681B68144A934204D073
:101FF4007B681B68124A93420CD1BB6823F08003B0
:10200400BB603B685B68BA681343BB607B681B6852
:10201400BA689A607B68012283F83D207B680022BD
:1020240083F83C20002318461437BD4680BC704713
:10203400002C01400034014000040040000800402E
:10204400000C004080B582B000AF78607B68002B44
:1020540001D1012342E07B6893F84130DBB2002BCD
:1020640006D17B68002283F840207868FEF72AFCBA
:102074007B68242283F841207B681B68DA687B68CC
:102084001B6822F40052DA60786800F009FA7B6871
:102094001B681A697B681B6822F490421A617B688A
:1020A4001B685A697B681B6822F02A025A617B68A4
:1020B4001B68DA687B681B6842F40052DA607B684C
:1020C40000225A647B68202283F841207B68202206
:1020D40083F842207B6800225A630023184608379D
:1020E400BD4680BD80B58AB002AFF860B9603B6080
:1020F4001346FB8000237B61FB6893F84130DBB21D
:10210400202B75D1BB68002B02D0FB88002B01D19A
:1021140001236EE0FB6800225A64FB68212283F8E5
:102124004120FEF701FD7861FB68FA889A84FB6818
:10213400FA88DA84FB689B68B3F5805F08D1FB6892
:102144001B69002B04D10023FB61BB68BB6103E066
:10215400BB68FB610023BB612EE03B6800937B6995
:1021640000228021F86800F0DFF80346002B05D038
:10217400FB68202283F8412003233AE0FB69002B0B
:102184000BD1BB691B881A46FB681B68C2F30802A3
:102194005A60BB690233BB6107E0FB691A78FB68CC
:1021A4001B685A60FB690133FB61FB68DB8C9BB2E3
:1021B400013B9AB2FB68DA84FB68DB8C9BB2002B90
:1021C400CBD13B6800937B6900224021F86800F082
:1021D400ABF80346002B05D0FB68202283F841208E
:1021E400032306E0FB68202283F84120002300E05B
:1021F400022318462037BD4680BD80B58AB002AFA1
:10220400F860B9603B601346FB8000237B61FB6888
:1022140093F84230DBB2202B40F08180BB68002B66
:1022240002D0FB88002B01D1012379E0FB68002256
:102234005A64FB68222283F84220FB6800221A6356
:10224400FEF772FC7861FB68FA889A85FB68FA8865
:10225400DA85FB689B68B3F5805F08D1FB681B696E
:10226400002B04D10023FB61BB68BB6103E0BB68A6
:10227400FB610023BB6147E03B6800937B6900225C
:102284002021F86800F050F80346002B05D0FB68C5
:10229400202283F84220032342E0FB69002B0CD167
:1022A400FB681B685B689BB2C3F308039AB2BB6903
:1022B4001A80BB690233BB611FE0FB689B68B3F5FE
:1022C400805F07D0FB689B68002B0AD1FB681B6901
:1022D400002B06D1FB681B685B68DAB2FB691A70D5
:1022E40008E0FB681B685B68DBB203F07F03DAB2CB
:1022F400FB691A70FB690133FB61FB68DB8D9BB2E0
:10230400013B9AB2FB68DA85FB68DB8D9BB2002B3C
:10231400B2D1FB68202283F84220002300E002238C
:1023240018462037BD4680BD80B586B000AFF86042
:10233400B9603B601346FB713BE03B6AB3F1FF3F7E
:1023440037D0FEF7F1FB02463B68D31A3A6A9A4249
:1023540002D33B6A002B01D103233AE0FB681B68DC
:10236400DB6803F00403002B23D0BB68802B20D050
:10237400BB68402B1DD0FB681B681B6803F0080377
:10238400082B16D100237B61FB681B681B687B61EB
:10239400FB681B685B687B617B69F86800F01DF86B
:1023A400FB6808225A64FB68002283F8402001235A
:1023B4000FE0FB681B681A68BB681340BA689A424E
:1023C4000CBF01230023DBB21A46FB799A42B4D036
:1023D400002318461837BD4680BD80B495B000AFC1
:1023E40078607B681B680C337B637B6B53E8003F2E
:1023F4003B633B6B23F49073FB647B681B680C3377
:10240400FA6C3A64FB63F96B3A6C41E80023BB63F2
:10241400BB6B002BE5D17B681B6814333B623B6AC2
:1024240053E8003FFB61FB6923F00103BB647B6855
:102434001B681433BA6CFA62BB62B96AFA6A41E87F
:1024440000237B627B6A002BE5D17B681B6B012B2D
:1024540019D17B681B680C33FB60FB6853E8003FB1
:10246400BB60BB6823F010037B647B681B680C3380
:102474007A6CBA617B617969BA6941E800233B618E
:102484003B69002BE5D17B68202283F842207B68DE
:1024940000221A6300BF5437BD4680BC7047000059
:1024A40080B584B000AF78607B681B681B6923F437
:1024B40040517B68DA687B681B680A431A617B6851
:1024C4009A687B681B691A437B685B691343BB602A
:1024D4007B681B68DB6823F4B05323F00C037A6831
:1024E4001268B9680B43D3607B681B685B6923F48B
:1024F40040717B689A697B681B680A435A617B68F0
:102504001B682C4A934203D1FFF79EF9F86002E05E
:10251400FFF786F9F860FA6813469B0013449A00A3
:102524001A447B685B689B00B2FBF3F3224AA2FB6C
:1025340003235B091901FA6813469B0013449A00AC
:102544001A447B685B689B00B2FBF3F21A4BA3FB53
:1025540002035B09642000FB03F3D31A1B0132332B
:10256400154AA2FB03235B0903F0F0031944FA683C
:1025740013469B0013449A001A447B685B689B00D3
:10258400B2FBF3F20C4BA3FB02035B09642000FBD8
:1025940003F3D31A1B013233074AA2FB03235B095B
:1025A40003F00F027B681B680A449A6000BF10376F
:1025B400BD4680BD003801401F85EB510CB430B5D9
:1025C400174B0C1E1D689DB008DA8B234FF0FF30AB
:1025D4002B601DB0BDE8304002B070474FF4027369
:1025E400ADF814300CBF234604F1FF330493079372
:1025F4004FF6FF7302900690ADF81630284621ABD3
:10260400209A02A9019300F0A9F9431CBCBF8B23B3
:102614002B60002CDDD00022029B1A70D9E700BF8A
:102624003C00002003460244934200D1704703F863
:10263400011BF9E70A7870B56AB970BD9A4209D1ED
:102644000C46054614F8013F002BF6D015F8016F2F
:102654009E42F7D001300378002BEFD11846ECE707
:10266400014B1868704700BF3C00002070B500267D
:102674000C4D0D4C641BA410A64209D100F078FC4B
:1026840000260A4D0A4C641BA410A64205D170BD55
:1026940055F8043B98470136EEE755F8043B984754
:1026A4000136F2E78C3100088C3100088C310008C7
:1026B400903100087047704738B50546002940D06E
:1026C40051F8043C0C1F002BB8BFE41800F0DEF8EE
:1026D4001C4A136833B9636014602846BDE8384067
:1026E40000F0DAB8A34208D9206821188B4201BF50
:1026F40019685B6809182160EDE71A465B680BB13D
:10270400A342FAD911685018A0420BD120680144A1
:10271400501883421160E0D118685B680844106067
:102724005360DAE702D90C232B60D6E7206821181E
:102734008B4201BF19685B680918216063605460AB
:10274400CBE738BD8402002070B50F4E0C463168CB
:10275400054611B900F0AAFB30602146284600F076
:10276400A5FB431C03D14FF0FF34204670BDC41CAD
:1027740024F00304A042F8D0211A284600F096FB66
:102784000130F2D1EFE700BF800200202DE9F843C9
:10279400CD1C25F0030508350C2D38BF0C25002D64
:1027A400064601DBA94204D90C2333600020BDE8AE
:1027B400F883DFF8D48000F069F8D8F800301C46BC
:1027C40044BB29463046FFF7BFFF431C044658D19B
:1027D400D8F800402746002F43D1002C4BD0236863
:1027E4003946304604EB030900F060FB814542D1D1
:1027F400216830466D1A2946FFF7A6FF01303AD00A
:1028040023682B442360D8F800305A6862BBC8F8A8
:1028140000700FE02268521B20D40B2A17D96119CB
:10282400A342256018BF5960636808BFC8F8001048
:1028340062514B60304600F02FF804F10B00231D69
:1028440020F00700C21A1CBF1B1AA350AFE762682E
:10285400A3420CBFC8F800205A60EBE72346646823
:10286400AEE73C467F68B6E71A465B68A342FBD1F5
:1028740000235360DEE70C233046336000F00CF88D
:1028840094E70560D6E700BF840200200148FFF703
:1028940011BF00BF7C0200200148FFF70CBF00BF3E
:1028A4007C0200202DE9F0471F468E688246BE4216
:1028B4000C4690460B682DD8B1F90C2012F4906F99
:1028C40026D06569096905EB4505A3EB010905EB0C
:1028D400D5757B1C4B446D109D4238BF1D46530576
:1028E40027D52946FFF752FF064660B34A462169B9
:1028F40000F0FAFAA38923F4906343F08003A381E0
:1029040026614E4426603E466561A5EB0905A56037
:10291400BE4200D93E4632464146206800F0ACFA39
:102924000020A3689B1BA360236833442360BDE895
:10293400F0872A4600F0E6FA06460028E0D1504621
:102944002169FFF7B9FE0C23CAF80030A3894FF0C0
:10295400FF3043F04003A381E9E700002DE9F04F85
:1029640098468B8907461B060D4614469DB010D524
:102974000B6973B94021FFF709FF2860286130B95A
:102984000C233B604FF0FF301DB0BDE8F08F4023B7
:102994006B610023099320238DF8293030234FF0F5
:1029A4000109CDF80C80DFF898818DF82A30234690
:1029B4009A4613F8012B0AB1252AF9D1BAEB040B74
:1029C4000BD05B46224629463846FFF76BFF0130A1
:1029D40000F0A780099A5A4409929AF80030002B13
:1029E40000F09F8000234FF0FF32CDE905230AF168
:1029F400010A049307938DF853301A935446052221
:102A040014F8011B4E4800F061FA049AD8B9D006B4
:102A140044BF20238DF85330110744BF2B238DF876
:102A240053309AF800302A2B15D0544600204FF02A
:102A34000A0C079A214611F8013B303B092B4BD96C
:102A4400B0B1079214E0A0EB080309FA03F31343AF
:102A5400A2460493D2E7039B191D1B680391002B24
:102A6400BBBF5B4242F0020207930793B8BF0492D4
:102A740023782E2B0AD163782A2B32D1039B02347C
:102A84001A1D1B68039243EAE3730593DFF8B4A0AD
:102A940003225046217800F019FA38B14022049BF1
:102AA400A0EB0A00824013430134049314F8011B81
:102AB400062225488DF8281000F008FA002836D0A0
:102AC400224B1BBB039B073323F0070308330393F9
:102AD400099B334409936AE70C4601200CFB02323C
:102AE400A8E700234FF00A0C194601340593204649
:102AF40010F8012B303A092A03D9002BC6D00591CE
:102B0400C4E7044601230CFB0121F0E703AB009367
:102B14002A4638460E4B04A9AFF30080421C0646F1
:102B2400D6D1AB895B063FF52DAF09982CE703ABF3
:102B340000932A463846064B04A900F07DF8EDE7D9
:102B44004F310008553100085931000800000000D9
:102B5400A92800082DE9F047164698468A680B69AB
:102B640007469342B8BF1346336091F843200C469E
:102B7400DDF820900AB1013333602368990642BF1F
:102B8400336802333360256815F0060506D104F175
:102B9400190AE36832689B1AAB422BDC94F8433081
:102BA4002268003B18BF0123920630D441463846C0
:102BB40004F14302C847013023D02368226903F09B
:102BC4000603042B14BF002533684FF0000608BF2A
:102BD400E56804F11A0408BFED1A54F8123C08BF62
:102BE40025EAE5759342C4BF9B1AED18B5421AD184
:102BF400002008E00123524641463846C8470130C8
:102C040003D14FF0FF30BDE8F0870135C1E7302034
:102C1400E11881F843005A1C94F845102244023309
:102C240082F84310C2E70123224641463846C8478A
:102C34000130E6D00136D9E72DE9FF470F7E9146F2
:102C4400782F80460C469A460C9E01F1430207D821
:102C5400622F0AD8002F00F0D380582F00F0BA80DA
:102C640004F1420684F842703AE0A7F16303152B9D
:102C7400F6D801A151F823F0D52C0008E92C00085E
:102C8400652C0008652C0008652C0008652C0008DC
:102C9400E92C0008652C0008652C0008652C000848
:102CA400652C0008EB2D0008132D0008A52D000845
:102CB400652C0008652C00080D2E0008652C000802
:102CC400132D0008652C0008652C0008AD2D0008A4
:102CD40033681A1D1B68326004F1420684F84230DE
:102CE40001239EE033682068191D3160060601D572
:102CF4001D6803E04506FBD5B3F90050002D03DA47
:102D04002D236D4284F843300A23594811E0216889
:102D14003368080653F8045B02D4490648BFADB2D1
:102D24006F2F336014BF0A2308235148002184F80D
:102D340043106668002EA8BF2168A660A4BF21F0D6
:102D4400040121600DB9002E4BD01646B5FBF3F1FA
:102D540003FB1157C75D06F8017D2F46BB420D46A4
:102D6400F4D9082B0BD12368DF0708D523696168E0
:102D74009942DEBF302306F8013C06F1FF36921B70
:102D840022614B4621464046CDF800A003AAFFF736
:102D9400E1FE01304AD14FF0FF3004B0BDE8F087C6
:102DA400236843F0200323607827324884F8457071
:102DB400236831681F0651F8045B02D45F0648BFDC
:102DC400ADB23160D90744BF43F0200323601DB185
:102DD4001023ABE72648E9E7236823F020032360A8
:102DE400F6E71646BDE733682568181D616930604B
:102DF4002E061B6801D5196002E06806FBD5198010
:102E0400002316462361BCE7336800211A1D326093
:102E14001E686268304600F059F808B1801B606093
:102E240063682361002384F84330AAE732464946A5
:102E340040462369D0470130ADD023689B0713D4A3
:102E4400E068039B9842B8BF1846A6E701233246C0
:102E540049464046D04701309DD00135E368039987
:102E64005B1AAB42F2DCEBE7002504F11906F5E747
:102E74006031000871310008884210B501EB02048A
:102E840002D98442234607D8431EA14208D011F830
:102E9400012B03F8012FF8E7014602448A4200D1CE
:102EA40010BD13F8014D02F8014DF7E738B50023C2
:102EB400054D044608462B60FDF77CFD431C02D1FA
:102EC4002B6803B1236038BD78020020034610B597
:102ED400C9B202449342184601D1002003E00478A9
:102EE40001338C42F6D110BD0A44914200F1FF3304
:102EF40000D1704710B511F8014B914203F8014F0E
:102F0400F9D110BD2DE9F041804615460C4621B992
:102F14001146BDE8F041FFF739BC2AB9FFF7CCFBF5
:102F240000242046BDE8F08100F01AF885420646E8
:102F340002D8B5EB500FF4D829464046FFF726FCDB
:102F440007460028ECD0B5422A46214628BF32461F
:102F5400FFF7CAFF21464046FFF7AEFB3C46E0E7D9
:102F640051F8043C181F002BBCBF0B58C018704705
:102F7400F8B500BFF8BC08BC9E467047F8B500BF62
:082F8400F8BC08BC9E46704732
:102F8C004F5554315F4F4E004F5554315F4F4646AD
:102F9C00000000004F5554325F4F4E004F555432D5
:102FAC005F4F4646000000004F5554335F4F4E00B4
:102FBC004F5554335F4F4646000000004F55543474
:102FCC005F4F4E004F5554345F4F46460000000093
:102FDC00494E3100494E3200494E3300494E3400BF
:102FEC004F4B3A2025640D0A00000000494E256421
:102FFC003A2025640D0A00004E4F4B3A2025730DE4
:10300C000A000000496E76616C696420636F6D6D17
:10301C00616E642E0A000000000000000000000039
:10302C000102030406070809000000000102030462
:10303C0002030405060708090A0B0C0D0E0F1010ED
:10304C0001020020202020202020202028282828B1
:10305C00282020202020202020202020202020205C
:10306C0020202088101010101010101010101010AC
:10307C0010101004040404040404040404101010BC
:10308C001010101041414141414101010101010168
:10309C0001010101010101010101010101011010F6
:1030AC00101010104242424242420202020202023C
:1030BC0002020202020202020202020202021010C8
:1030CC0010102000000000000000000000000000B4
:1030DC0000000000000000000000000000000000E4
:1030EC0000000000000000000000000000000000D4
:1030FC0000000000000000000000000000000000C4
:10310C0000000000000000000000000000000000B3
:10311C0000000000000000000000000000000000A3
:10312C000000000000000000000000000000000093
:10313C000000000000000000000000000000000083
:10314C00000000232D302B2000686C4C0065666756
:10315C004546470030313233343536373839414201
:10316C0043444546003031323334353637383961D3
:08317C00626364656600000057
:08318400A0D0FF7F0100000054
:04318C00090200082C
:04319000E50100084D
:103194008C2F0008942F0008A02F0008A82F0008E7
:1031A400B42F0008BC2F0008C82F0008D02F000837
:1031B400DC2F0008E02F0008E42F0008E82F0008A7
:1031C40000127A00100000000100000040000020FE
:1031D4000000000040010020A8010020100200208F
:1031E40000000000000000000000000000000000DB
:1031F40000000000000000000000000000000000CB
:1032040000000000000000000000000000000000BA
:0C321400000000000000000000000000AE
:0400000508000A31B4
:00000001FF
